:100000000C9434000C9451000C9451000C94510049
:100010000C9451000C9451000C9451000C9451001C
:100020000C9451000C9451000C9451000C9451000C
:100030000C9451000C9451000C9451000C945100FC
:100040000C9451000C9451000C9451000C945100EC
:100050000C9451000C9451000C9451000C945100DC
:100060000C9451000C94510011241FBECFEFD8E026
:10007000DEBFCDBF11E0A0E0B1E0E4E4FFE102C0EB
:1000800005900D92A430B107D9F711E0A4E0B1E0DA
:1000900001C01D92AF35B107E1F70E94D5070C945E
:1000A000A00F0C940000823331F0833331F08133A0
:1000B00029F489E5089582E4089587E40895806429
:1000C00080937C0020E030E040E080917A00806402
:1000D00080937A0080917A0086FDFCCF8091780031
:1000E00090917900280F391F4F5F443171F7C90192
:1000F00064E170E00E94E00ECB010895482F440FA8
:10010000662359F025B181E090E0042E02C0880FEB
:10011000991F0A94E2F7282B25B984B121E030E039
:1001200002C0220F331F4A95E2F7822B84B984EC78
:1001300099E00197F1F784B12095822384B9662371
:1001400019F085B1282325B908952F923F924F9237
:100150005F926F927F928F929F92AF92BF92CF9257
:10016000DF92EF92FF920F931F93DF93CF93CDB760
:10017000DEB72A970FB6F894DEBF0FBECDBF782E3C
:10018000662EA42EA895262F30E038872F83220FC5
:10019000331F3E832D8321E030E0C9010D8002C072
:1001A000880F991F0A94E2F7D82E84B915B8472D05
:1001B00050E05C834B830B8002C0220F331F0A94F4
:1001C000E2F7522F58605A8357B9298328B982EE33
:1001D00094E00197F1F78A2D60E00E947E00862D61
:1001E0000E945F002C0188EC4816510440F08A2DD3
:1001F00061E00E947E00862D0E945F002C0194E148
:100200004916510408F4A8C084B19A2D990F02E050
:1002100010E002C0000F111F9A95E2F7802B84B9FD
:1002200038E8832E33E1932EC4010197F1F7862D30
:100230000E945F007C0185B1082B05B9C4010197BC
:10024000F1F7862D0E945F00A4E6B0E0EA0EFB1EE7
:10025000E816F90690F518B821E030E0C9010F80E2
:1002600002C0880F991F0A94E2F7886087B994B199
:100270008B81880F02C0220F331F8A95E2F7922BE1
:1002800094B985B1282B25B9C4010197F1F78A2DBE
:100290000E945F008152934020F083E080930A0126
:1002A00004C083E080930A0185E080930901A09255
:1002B0000601709225016092440118B801E010E037
:1002C000C8010F8002C0880F991F0A94E2F7886066
:1002D00087B994B18B81880F02C0000F111F8A95D6
:1002E000E2F7802F902B94B995B1892B85B928E836
:1002F000822E23E1922EC4010197F1F7872D0E94EF
:100300005F007C0105B9C4010197F1F7872D0E94B8
:100310005F008C599F4F8E159F05F0F4E981E8B975
:10032000FA81F7B9C4010197F1F78A2D0E945F00A5
:10033000883C910528F483E080930A0184E004C09E
:1003400083E080930A0186E080930901A092060170
:100350006092250170924401D4B815B82A8127B95A
:10036000398138B992EE892E94E0992EC401019713
:10037000F1F748EC4416510408F0ECC1EA2CEE0CFD
:1003800024B101E010E0C8010E2C02C0880F991FB3
:100390000A94E2F7382E282B24B984EF91E00197D4
:1003A000F1F7862D0E945F008D5B924008F49AC0A1
:1003B000D4B884B1E3940E2C02C0000F111F0A942C
:1003C000E2F7EA94802B84B984EC99E00197F1F785
:1003D000862D0E945F008C018A2D0E945F009C0187
:1003E00090910A01892F8250823018F481E0809325
:1003F0000701E0910701F0E0EE0FFF1FDF01A25CB3
:10040000BE4F0D931C93E25DFE4F318320839530E8
:1004100009F468C0293C310530F082E080930A017C
:100420008093090159C084E14816510408F054C072
:1004300083E080930A0182E08093090181E090E0EB
:100440000F8002C0880F991F0A94E2F7082F14B199
:100450008A2D806480937C0010923C0110923B01B5
:100460001092060128C0A8958A2D61E00E947E00A6
:1004700086B18023E9F314B880917A008064809378
:100480007A0080917A0086FDFCCF8091780090916F
:10049000790020913B0130913C0121503C4F281BB9
:1004A000390B30933C0120933B0114B98091060134
:1004B0008F5F80930601809106018D30A0F220911C
:1004C0003B0130913C01C901880F991F820F931F96
:1004D00090933C0180933B01A0920601609225011C
:1004E0007092440118B88B81880F21E030E0D90167
:1004F00002C0AA0FBB1F8A95E2F7BA87A987898530
:10050000832984B985B949010F8002C0880C991CE0
:100510000A94E2F7882D886087B904EC19E0C801D5
:100520000197F1F7872D0E945F00845F914008F0EA
:100530000DC180910701813009F408C3E985E5B94F
:10054000C8010197F1F7F985F4B9B2EECB2EB4E00A
:10055000DB2EC6010197F1F7872D0E945F008C0109
:1005600015B8C6010197F1F7298525B9C60101978C
:10057000F1F7872D0E945F00045F114008F04EC024
:100580008558934008F44AC085E080930A0114B866
:1005900015B888B8C6010197F1F7598554B9C60155
:1005A0000197F1F7872D0E945F00C39708F0C8C03C
:1005B00084B1382A34B8C6010197F1F78A2D0E9418
:1005C0005F00883C910508F4BBC0872D0E945F0046
:1005D0008639910508F4B4C0898584B9C6010197AC
:1005E000F1F7872D0E945F008639910508F4A8C0B5
:1005F000998595B9C6010197F1F715B8C60101971C
:10060000F1F7872D0E945F00C39708F099C084E03E
:1006100080930A0181E08093070192C024B1E394A2
:1006200081E090E002C0880F991FEA94E2F7282B3E
:1006300024B925B1822B85B984ED90E30197F1F7B8
:10064000872D0E945F008C018A2D0E945F00AC0103
:1006500080910A018250823018F481E08093070172
:10066000E0910701F0E0EE0FFF1FDF01A25CBE4F3B
:100670008FEF93E09C01201B310B2D933C93E25DA7
:10068000FE4F841B950B91838083445F514038F467
:1006900082E080930A0181E08093090151C0B4E1B6
:1006A0004B16510408F04CC083E080930A0181E0AE
:1006B0008093090114B18A2D806480937C0010928C
:1006C0003C0110923B011092060129C0A8958A2D89
:1006D00060E00E947E0086B1E9818E23E1F714B8C4
:1006E00015B880917A00806480937A0080917A00B6
:1006F00086FDFCCF809178009091790020913B019C
:1007000030913C01280F391F30933C0120933B016D
:1007100014B915B9809106018F5F8093060180910D
:1007200006018D3098F220913B0130913C01C901C6
:10073000880F991F820F931F90933C0180933B0178
:10074000A0920601709225016092440188E087B969
:1007500018B8F1C00B811C81000F111F62E0E62E5A
:10076000F12C002E02C0EE0CFF1C0A94E2F781E08F
:1007700090E09C0102C0220F331F0A95E2F7890125
:1007800018B80F8002C0880F991F0A94E2F788609A
:1007900087B98A2D61E00E947E00C4010197F1F7BC
:1007A000872D0E945F006C01862D0E945F00C81A91
:1007B000D90AE4B8E5B8C4010197F1F7872D0E9482
:1007C0005F001C01862D0E945F002C0104B905B951
:1007D0008A2D60E00E947E00C4010197F1F7872D09
:1007E0000E945F005C01862D0E945F00A81AB90A72
:1007F000E4B8E5B8C4010197F1F7872D0E945F00C6
:100800008C01862D0E945F00AC14BD0420F44101D0
:100810008418950804C04801881A990A6501C60120
:100820004F978759934008F086C080910A0188232A
:1008300011F0863019F481E080930A0120910801BB
:10084000E22FF0E0EE0FFF1FEE0FFF1FDF01AB5BAB
:10085000BE4F7C9211966C92E95BFE4F86E390E06E
:10086000AC01C49EC001C59E900DD49E900D112474
:100870006BE070E00E94E00E71836083122F1F5FB7
:100880001093080136E0880C991C3A95E1F7C601EF
:1008900065E070E00E94E00E6B0170E047C0E72F5A
:1008A000F0E0EE0FFF1FEE0FFF1FEB5BFE4F8081AE
:1008B0008615D9F581818715C1F58C149D04A8F59D
:1008C000672F412F50E04150504029C0F50131962B
:1008D000AA0CBB1CAA0CBB1C95012B5B3E4FEE0F58
:1008E000FF1FEE0FFF1F05E4402E01E0502E4E0EBD
:1008F0005F1ED2018C91D9018C93D20111968C91FB
:10090000D90111968C9327E431E0A20EB31EE20FB9
:10091000F31F80819181D5018D939C936F5FA62EEB
:10092000BB24A416B50694F212507F5F711708F429
:10093000B6CF109308012B813C81220F331F32E088
:10094000E32EF12C6701022E02C0CC0CDD1C0A94B0
:10095000E2F701E010E0F80102C0EE0FFF1F2A9558
:10096000E2F718B8C8010F8002C0880F991F0A94D7
:10097000E2F7886087B9E4B9E5B9862D0E945F0087
:100980005C01872D0E945F004C018A189B08C4B847
:10099000C5B8862D0E945F006C01872D0E945F0004
:1009A0002C014C185D080D8002C0EE0CFF1C0A944F
:1009B000E2F70D8002C0000F111F0A94E2F7FA81DE
:1009C000F7B9298128B915B804B9872D0E945F00AD
:1009D000850101501C4F081B190BE4B8872D0E949C
:1009E0005F00F601E150FC4FE81BF90BC401801BCE
:1009F000910B8458934030F4C2018E1B9F0B459796
:100A000008F0A4C0C20125E0880F991F2A95E1F7DC
:100A10006FE170E00E94E00E6815790508F096C05D
:100A200080910A01823018F0863009F08FC0609101
:100A30005D01663009F06CC080915E01861509F099
:100A400067C080911101871509F062C0409136019D
:100A5000509137019401220F331F280D391D220FA9
:100A6000331F285A3D4FCA01880F991F880F991FBD
:100A7000840F951F8C509E4F2817390708F443C0E8
:100A80009A01220F331F240F351F220F331F285ABC
:100A90003D4FC401880F991F880F991F880D991D1C
:100AA0008C509E4F2817390770F1409138015091B2
:100AB00039019201220F331F240D351D220F331FE0
:100AC000285A3D4FCA01880F991F880F991F840F1C
:100AD000951F8C509E4F28173907A8F09A01220FB6
:100AE000331F240F351F220F331F285A3D4FC201D9
:100AF000880F991F880F991F840D951D8C509E4F4C
:100B00002817390718F410925D0120C060930A017C
:100B1000909237018092360150923901409238010B
:100B20008FEF93E09C01201B310B30932201209327
:100B300021018E1B9F0B90932401809323017092BF
:100B40005E016092110186E080935D0188E087B9C3
:100B500018B814B815B82A960FB6F894DEBF0FBEB1
:100B6000CDBFCF91DF911F910F91FF90EF90DF905C
:100B7000CF90BF90AF909F908F907F906F905F903D
:100B80004F903F902F900895EF92FF921F93CF9335
:100B9000DF93EC01162F6330B0F4613049F480E04C
:100BA00091E00E94940E80E30E94670E888108C045
:100BB00080E091E00E94940E88810E94670E8981F6
:100BC0000E94670E1EC010920701E42EFF2415C07C
:100BD00090E002968E159F0519F48EE20E94670E32
:100BE00080910701FE01E80FF11D80810E94670ED0
:100BF000809107018F5F8093070180910701811722
:100C000038F3DF91CF911F91FF90EF9008959F925D
:100C1000AF92BF92CF92DF92EF92FF920F931F930A
:100C2000CF93DF93B82EA62E80910A01873009F466
:100C3000A3C1CB2CDD24C601880F991F42E050E0F0
:100C4000082E02C0440F551F0A94E2F740931A0180
:100C500021E030E0B90102C0660F771F8A95E2F704
:100C6000962E60930C0118B815B814B80A2C02C05F
:100C7000220F331F0A94E2F768E0E62EE22AE7B873
:100C800044B902EE14E0C8010197F1F78B2D0E94E0
:100C90005F0090932701809326018B2D61E00E94D5
:100CA0007E008B2D0E945F0090932B0180932A0180
:100CB000C8010197F1F78B2D0E945F0090932901E5
:100CC00080932801A89520912601309127012F5F5C
:100CD0003F4F2817390740F080912A0190912B014E
:100CE0002817390708F048C180910C0184B9C0E089
:100CF000D0E0FF2407C0A895219621F4F3947EE16B
:100D0000F71659F08B2D0E945F008C018A2D0E94EE
:100D10005F000A968017910770F380910C0185B9E6
:100D200082EE94E00197F1F78B2D0E945F00909383
:100D30002B0180932A0180E29EE40197F1F78B2D2D
:100D40000E945F009C0190932D0180932C01809163
:100D50002A0190912B0103962817390728F483E084
:100D60002235380708F408C180910801882341F032
:100D7000275B334028F080910A01833009F0FCC0E2
:100D800015B8C0E0D0E0FF2407C0A895219621F453
:100D9000F3947EE1F71659F08B2D0E945F008C01D1
:100DA0008A2D0E945F000A968017910770F38FE0EA
:100DB00087B980910C0185B981E090E002C0880F6D
:100DC000991FCA94E2F7982F80930C01E4EFF1E0A9
:100DD0003197F1F7E7B8C0E0D0E0DD2408C0A8956E
:100DE000219629F4D3948EE1D81609F44CC086B12B
:100DF0008923A9F3CD2CDD2009F045C0CF3FD105D3
:100E000011F008F040C0E7B815B8FF24C0E0D0E00A
:100E100007C0A895219621F4F3946EE1F61659F0D7
:100E20008B2D0E945F008C018A2D0E945F000A9624
:100E30008017910770F38FE087B918B880911A0175
:100E400084B985B984EF91E00197F1F780910A01A7
:100E5000833059F480910C0180958770886087B940
:100E600090910C01C0E0D0E00AC0E7B8F9CFA89596
:100E7000219629F4C3947EE1C71609F48EC086B189
:100E80008923A9F38AC08AE090E00E947A0F7C014E
:100E900000E010E088EE93E0A0E0B0E080930D0168
:100EA00090930E01A0930F01B0931001CD2C13C0AD
:100EB000C530D10508F460C07C0100E010E081E09D
:100EC00090E0A0E0B0E080930D0190930E01A0931C
:100ED0000F01B09310016C2D70E080E090E0CB0129
:100EE000772766279E0140E050E0620F731F841F42
:100EF000951FA80197010E94C10E24E630E040E052
:100F000050E00E94F40E60910D0170910E018091ED
:100F10000F01909110010E94C10E60930D0170931A
:100F20000E0180930F019093100187E080930A01D6
:100F3000B0923D01A0920B0194B815B8C0E0D0E08A
:100F4000FF2407C0A895219621F4F3948EE1F816AA
:100F500059F08B2D0E945F008C018A2D0E945F004A
:100F60000A968017910770F38FE087B987E088B9F8
:100F700084EC99E00197F1F788E087B918B814B8C4
:100F800015B8DF91CF911F910F91FF90EF90DF90F7
:100F9000CF90BF90AF909F90089588E090E00E941E
:100FA0007A0FCC2009F484CF87CF2F923F924F92B3
:100FB0005F926F927F928F929F92AF92BF92CF92E9
:100FC000DF92EF92FF920F931F93CF93DF9380E412
:100FD0008AB980EC8BB926982E9A83E880937A00A0
:100FE0000E94260E86E090E00E947A0FEC0184E0D9
:100FF00090E00E947A0F2C0180E090E00E94720F36
:10100000482F50E09A012C70307035952795359512
:10101000279520934201837080933A01407350706A
:1010200094E0559547959A95E1F74093430188E1FF
:101030000FB6F89480936000109260000FBE05B662
:1010400003FE0EC084E790E00E94830E80E395E7E4
:1010500029E130E0F9013197F1F70197D9F77EC026
:1010600080E40E940F0E85E491E00E94830E80E8E8
:101070000E940F0EBE0180E090E024E630E040E0E8
:1010800050E00E94C10E5B016C0182E1282E81E0DC
:10109000382E32018824992404C090933F01809314
:1010A0003E018FE028E130E00FB6F894A895209338
:1010B00060000FBE8093600010920A0110925D01E3
:1010C00010920801109207011092090110923D013F
:1010D00010920B010E941C0E88E087B90E94080E36
:1010E00085E80E945F0085E80E945F0090933F01C1
:1010F00080933E010E941C0E8CE090E00E94830EC3
:101100001E9B47C081E090E090930501809304010D
:1011100088E190E00E94830E80EC0E940F0E809187
:101120003E0190913F0182559340D0F58CE290E0D2
:101130000E94830E80913E0190913F018A58924017
:1011400018F58AE390E00E94830E80E197E229E19E
:1011500030E0F9013197F1F70197D9F71BB880E03A
:1011600090E0DF91CF911F910F91FF90EF90DF9072
:10117000CF90BF90AF909F908F907F906F905F9037
:101180004F903F902F9008950E941C0E85E390E0B1
:1011900002C08EE190E00E94830E80EC0E940F0E50
:1011A00084E290E00E94830E8EE20E94670E80E04F
:1011B00061E042E00E94A5008EE20E94670E80E09E
:1011C00062E041E00E94A5008EE20E94670E81E08D
:1011D00060E042E00E94A5008EE20E94670E81E07E
:1011E00062E040E00E94A5008EE20E94670E82E06D
:1011F00061E040E00E94A5008EE20E94670E82E05E
:1012000060E041E00E94A5008EE20E94670E80919E
:101210000A01882321F0863011F0813089F5209170
:101220004301222369F115B885E184B984EC99E082
:101230000197F1F714B8213059F48091420160917F
:101240003A010E94070680913A016091420116C05E
:1012500082E060E00E94070682E061E00E940706EB
:1012600081E062E00E94070681E060E00E940706DC
:1012700080E062E00E94070680E061E00E940706CD
:101280000E941C0E80910A01813009F0F1C080910A
:101290000801813081F58DE790E00E94830E89E39B
:1012A00091E00E94830E809145018F5C0E94530063
:1012B0000E94670E8AEE90E00E94830E80914601A4
:1012C0008F5C0E9453000E94670E80EC0E940F0EFC
:1012D0008EE291E00E94830E809147019091480137
:1012E00062E171E04AE050E00E94160F0E94940E05
:1012F00086E391E01AC4823009F06CC03091450158
:1013000020914901321741F585E890E00E94830E53
:101310008FE391E00E94830E80EC0E940F0E89E320
:1013200091E00E94830E809145018F5C0E945300E2
:101330000E94670E8BED90E00E94830E8091460123
:101340008F5C0E9453000E94670E80EE90E00E9426
:10135000830E80914A0192C28091460190914A0188
:10136000891741F585E890E00E94830E82E491E0C0
:101370000E94830E80EC0E940F0E8EEE90E00E9481
:10138000830E809146018F5C0E9453000E94670E7D
:1013900082E091E00E94830E809145018F5C0E9463
:1013A00053000E94670E87E091E00E94830E8091B7
:1013B000490164C2821709F0A7C3931709F0A4C3B7
:1013C00083E990E00E94830E80EC0E940F0E8CE96E
:1013D00090E0ABC3833009F097C3809306018093FC
:1013E00025019091450180914901981721F0809144
:1013F0004D01981711F49093060190914901809145
:101400004D01981711F49093060190914601809137
:101410004A01981721F080914E01981711F490938A
:10142000250190914A0180914E01981711F49093F3
:10143000250180910601833008F066C38091250163
:10144000833008F061C383E990E00E94830E80EC52
:101450000E940F0E81EC90E00E94830E80910601A5
:101460008F5C0E9453000E94670E8AEE90E002C2D9
:10147000823009F00BC180910701882381F48091AB
:101480003E0190913F0190934101809340018091F2
:101490002E0190912F019093310180933001209182
:1014A0003E0130913F0180914001909141018217AE
:1014B0009307A0F4309341012093400180912E01C5
:1014C00090912F01909331018093300190912501EB
:1014D00080914401809325019093440180910901FA
:1014E000813019F485E191E002C089E191E00E9428
:1014F000830E8DE191E00E94830E809106018F5C46
:101500000E9453000E94670E81E291E00E94830EC8
:10151000809125018F5C0E9453000E94670E85E236
:1015200091E00E94830E809144018F5C0E945300E1
:101530000E94670E80EC0E940F0EC601B501A40147
:1015400093010E94F40ECA01B9012091400130912B
:10155000410140E050E00E94C10E6093320170935F
:101560003301809334019093350180913001909143
:1015700031010B9730F48BE090E090933101809330
:101580003001209130013091310140E050E0609114
:1015900032017091330180913401909135010E94A4
:1015A000F40E209332013093330140933401509371
:1015B0003501C901209340019093410180E191E000
:1015C0000E94830E809140019091410162E171E09F
:1015D0004AE050E00E945C0F0E94940E87EC0E944B
:1015E0000F0E80910801833010F080E001C080E28E
:1015F0000E94670E1092250141C0A22FB0E0FD01AC
:10160000EE0FFF1FEE0FFF1FEB5BFE4F418130918E
:101610004401431749F4908180910601981721F401
:1016200080910901813089F0AA0FBB1FAA0FBB1F4F
:10163000AB5BBE4F8C918317F1F480910601481784
:10164000D1F4809109018230B1F48EE291E00E94E0
:10165000830EE0912501F0E0EE0FFF1FEE0FFF1F5C
:10166000E95BFE4F8081918162E171E04AE050E0E8
:101670000E94160FBCC02F5F2093250120912501E9
:1016800080910801281708F4B8CF69C2833009F0A7
:10169000B2C08091090180FF02C08EE401C080E5E4
:1016A0000E94670E90910901892F8350823018F4AF
:1016B00089EF90E008C09550923018F48CEF90E0DC
:1016C00006C086EF90E00E94830E81EF90E00E94BA
:1016D000830E80910901833008F040C08CE091E0D6
:1016E0000E94830E80910601609144010E940706CA
:1016F00080910D0190910E0190933F0180933E01E6
:101700008330910528F0039790933F0180933E0129
:1017100080913E0190913F016BE171E04AE050E021
:101720000E945C0FEBE1F1E001900020E9F73197B6
:10173000EB51F140E0930C01E0931A01E53018F011
:1017400084E080930C018BE191E060910C01409169
:101750001A010E94C4058EE60E94670E80EC0E946A
:101760000F0E89E291E00E94830E809106018F5C4A
:101770000E9453000E94670E809125018F5C0E9499
:1017800053000E94670E809144018F5C0E945300B9
:101790000E94670E80910801882331F08091090131
:1017A000833010F480E001C080E20E94670E8091D7
:1017B0000901833008F0D3C180913B0190913C0135
:1017C000E3E096958795EA95E1F790933C01809345
:1017D0003B0182E391E00E94830E80913B01909156
:1017E0003C0162E171E04AE050E00E945C0F0E941F
:1017F000940E8DE6B2C18530E1F481ED90E00E9457
:10180000830E80EC0E940F0E85EE90E00E94830E06
:10181000809106018F5C0E9453000E94670E8091A8
:1018200025018F5C0E9453000E94670E8091440145
:1018300025C0843039F58BEC90E00E94830E80EC5B
:101840000E940F0E8CE391E00E94830E80910601AE
:101850008F5C0E9453000E94670E82E091E00E941C
:10186000830E809144018F5C0E9453000E94670E9A
:1018700087E091E00E94830E809125018F5C0E9499
:1018800053006BC1863009F0DDC08AEA90E00E9407
:10189000830E80915E018F5C0E9453000E94670E50
:1018A0008DE20E94670E809111018F5C0E945300AF
:1018B0000E94670E80EC0E940F0E2091360130913D
:1018C000370182E02130380738F020503240309321
:1018D0003F0120933E0108C080E092E0821B930B01
:1018E00090933F0180933E0120913801309139015E
:1018F00082E02130380738F02050324030934101E7
:101900002093400108C080E092E0821B930B9093EB
:1019100041018093400120913E0130913F0180912F
:1019200040019091410182179307A8F4809123010F
:10193000909124019093220180932101809138019C
:10194000909139019093370180933601D0933901FA
:10195000C093380104C050923901409238018091FF
:10196000360190913701892B31F481E090E090931A
:10197000370180933601E0903601F090370100E0A6
:1019800010E0209138013091390140E050E0C80169
:10199000B7010E94C10E209121013091220140E047
:1019A00050E02E193F09400B510B0E94F40ECA0162
:1019B00020933201309333014093340190933501E9
:1019C000B90142E151E02AE030E00E94370F8091F6
:1019D0003801909139018C179D0771F5F101019043
:1019E0000020E9F73197E251F140E0935E01109257
:1019F000110118C0F0E0EE5EFE4F80810E94670E7C
:101A00002091110130E080915E0190E0029728174B
:101A1000390719F48CE20E94670E809111018F5FE3
:101A200080931101E091110180915E01E81710F39C
:101A30008BE40E94670E04C082E191E00E94940E44
:101A400084EF8BC0873009F05FC085EB90E00E9487
:101A5000830E80913D018F5C0E9453000E94670EAF
:101A60008DE20E94670E80910B018F5C0E945300F3
:101A70000E94670E80EC0E940F0E8EE680931A0182
:101A800060910D0170910E0180910F0190911001F4
:101A9000603A26E8720721E0820720E0920788F08A
:101AA00028EE33E040E050E00E94F40E20930D0158
:101AB00030930E0140930F015093100184EE8093F8
:101AC0001A0160910D0170910E0180910F019091AA
:101AD000100142E151E02AE030E00E94370FF101AD
:101AE00001900020E9F73197E251F140E0930C01B9
:101AF00082E191E06E2F4E2F0E94C40580911A0161
:101B00000E94670E86E429C080910801882381F431
:101B100081E490E00E94830E80EC0E940F0E81E52C
:101B200090E00E94830E8AE590E00E94830E17C029
:101B30008AE590E00E94830E8FE590E00E94830E7C
:101B400080EC0E940F0E88E690E00E94830E809148
:101B50000801805D0E94670E80E00E94670E4F9B27
:101B6000FECF80E593EC0197F1F710923F011092C0
:101B70003E0180E090E04AEF50E00AC09C012F5FF8
:101B80003F4F4F9B8ACAA895CA010197F1F7C90137
:101B900027E28031920790F390933F0180933E01BA
:101BA0005E9888E10FB6F894809360001092600010
:101BB0000FBE4F99FECF75CA96EA9A95F1F79BB181
:101BC000282F22952F70907F292B2BB931E0932F4E
:101BD0009A95F1F75D9A23E0922F9A95F1F75D9827
:101BE0009BB18F70907F982B9BB93A95F1F75D9AD6
:101BF0002A95F1F75D9884E18A95F1F78BB1807FA2
:101C00008BB908955D9A83E08A95F1F75D98089500
:101C10008DE00E94A10E8AE00E94A10E08951F93FC
:101C2000182F5C980E94DC0D103811F0103C11F454
:101C30000E94080E1F91089581E00E940F0E82EE0F
:101C400094E00197F1F70E94080E08958AB18F631E
:101C50008AB98CE49DE10197F1F78BB1807E8360B6
:101C60008BB95D9A93E0892F8A95F1F75D98E2EE42
:101C7000F4E03197F1F75D9A892F8A95F1F75D9835
:101C80002AEF30E0F9013197F1F75D9A892F8A95B3
:101C9000F1F75D98F9013197F1F78BB1807E8260A1
:101CA0008BB9F9013197F1F75D9A9A95F1F75D9843
:101CB000C9010197F1F788E20E940F0E8CE00E94A3
:101CC0000F0E86E00E940F0E0E941C0E08951F93B7
:101CD000182F5C9A0E94DC0D113E61F0123E18F440
:101CE000112331F00BC0143E39F0143F39F409C010
:101CF00083E205C084EE03C085EB01C0812F0E9402
:101D0000A10E1F910895CF93DF93EC01CE010E94A5
:101D1000720F882331F0803821F00E94670E2196DF
:101D2000F5CFDF91CF910895CF93DF93EC0103C0FE
:101D30000E94670E219688818823D1F7DF91CF9189
:101D400008952F935FB72F932AE08095089410F49D
:101D5000439A02C04398000008D007D086952A9580
:101D6000B1F72F915FBF2F9108955F935FB75F9396
:101D700000005EE35A95F1F700005F915FBF5F914D
:101D80000895629FD001739FF001829FE00DF11DC5
:101D9000649FE00DF11D929FF00D839FF00D749FE5
:101DA000F00D659FF00D9927729FB00DE11DF91F91
:101DB000639FB00DE11DF91FBD01CF0111240895EE
:101DC000AA1BBB1B51E107C0AA1FBB1FA617B70761
:101DD00010F0A61BB70B881F991F5A95A9F780957D
:101DE0009095BC01CD010895A1E21A2EAA1BBB1B40
:101DF000FD010DC0AA1FBB1FEE1FFF1FA217B307D7
:101E0000E407F50720F0A21BB30BE40BF50B661FEC
:101E1000771F881F991F1A9469F7609570958095B0
:101E200090959B01AC01BD01CF010895FB019F017D
:101E3000E8944230C4F04532B4F44A3029F497FBB8
:101E40001EF4909581959F4F642F77270E94E00E96
:101E5000805D8A330CF0895D8193CB010097A1F7F7
:101E600016F45DE251931082C9010C94800FFA01BF
:101E7000CF93FF93EF932230CCF02532BCF4C22FE6
:101E80002C2F332744275527FF93EF930E94F40EFE
:101E9000EF91FF91605D6A330CF0695D6193B90168
:101EA000CA01605070408040904051F710828F917D
:101EB0009F91CF910C94800FFB019F01423074F0F1
:101EC000453264F4642F77270E94E00E805D8A33E8
:101ED0000CF0895D8193CB010097A1F71082C901B5
:101EE0000C94800FF999FECF92BD81BDF89A992785
:101EF00080B50895A8E1B0E042E050E00C94920F64
:101F0000DC01FC01672F71917723E1F7329704C060
:101F10007C916D9370836291AE17BF07C8F30895EB
:101F2000DC01CB01FC01F999FECF06C0F2BDE1BD99
:101F3000F89A319600B40D9241505040B8F7089588
:041F4000F894FFCF43
:041F4400302E00003B
:00000001FF
