:100000000C9434000C9451000C9451000C94510049
:100010000C9451000C9451000C9451000C9451001C
:100020000C9451000C9451000C9451000C9451000C
:100030000C9451000C9451000C9451000C945100FC
:100040000C9451000C9451000C9451000C945100EC
:100050000C9451000C9451000C9451000C945100DC
:100060000C9451000C94510011241FBECFEFD8E026
:10007000DEBFCDBF11E0A0E0B1E0E8EFFEE102C0DD
:1000800005900D92A430B107D9F711E0A4E0B1E0DA
:1000900001C01D92AD35B107E1F70E94D5070C9460
:1000A0007A0F0C940000823331F0833331F08133C6
:1000B00029F482E4089587E4089589E50895806429
:1000C00080937C0020E030E040E080917A00806402
:1000D00080937A0080917A0086FDFCCF8091780031
:1000E00090917900280F391F4F5F443171F7C90192
:1000F00064E170E00E94BA0ECB010895482F440FCE
:10010000662359F025B181E090E0042E02C0880FEB
:10011000991F0A94E2F7282B25B984B121E030E039
:1001200002C0220F331F4A95E2F7822B84B984EC78
:1001300099E00197F1F784B12095822384B9662371
:1001400019F085B1282325B908952F923F924F9237
:100150005F926F927F928F929F92AF92BF92CF9257
:10016000DF92EF92FF920F931F93DF93CF93CDB760
:10017000DEB72A970FB6F894DEBF0FBECDBF782E3C
:10018000662EA42EA895262F30E038872F83220FC5
:10019000331F3E832D8321E030E0C9010D8002C072
:1001A000880F991F0A94E2F7D82E84B915B8472D05
:1001B00050E05C834B830B8002C0220F331F0A94F4
:1001C000E2F7522F58605A8357B9298328B982EE33
:1001D00094E00197F1F78A2D60E00E947E00862D61
:1001E0000E945F002C0188EC4816510440F08A2DD3
:1001F00061E00E947E00862D0E945F002C0194E148
:100200004916510408F4A8C084B19A2D990F02E050
:1002100010E002C0000F111F9A95E2F7802B84B9FD
:1002200038E8832E33E1932EC4010197F1F7862D30
:100230000E945F007C0185B1082B05B9C4010197BC
:10024000F1F7862D0E945F00A4E6B0E0EA0EFB1EE7
:10025000E816F90690F518B821E030E0C9010F80E2
:1002600002C0880F991F0A94E2F7886087B994B199
:100270008B81880F02C0220F331F8A95E2F7922BE1
:1002800094B985B1282B25B9C4010197F1F78A2DBE
:100290000E945F008152934020F083E08093080128
:1002A00004C083E08093080185E080930701A09259
:1002B0000401709223016092420118B801E010E03D
:1002C000C8010F8002C0880F991F0A94E2F7886066
:1002D00087B994B18B81880F02C0000F111F8A95D6
:1002E000E2F7802F902B94B995B1892B85B928E836
:1002F000822E23E1922EC4010197F1F7872D0E94EF
:100300005F007C0105B9C4010197F1F7872D0E94B8
:100310005F008C599F4F8E159F05F0F4E981E8B975
:10032000FA81F7B9C4010197F1F78A2D0E945F00A5
:10033000883C910528F483E08093080184E004C0A0
:1003400083E08093080186E080930701A092040176
:100350006092230170924201D4B815B82A8127B95E
:10036000398138B992EE892E94E0992EC401019713
:10037000F1F748EC4416510408F0ECC1EA2CEE0CFD
:1003800024B101E010E0C8010E2C02C0880F991FB3
:100390000A94E2F7382E282B24B984EF91E00197D4
:1003A000F1F7862D0E945F008D5B924008F49AC0A1
:1003B000D4B884B1E3940E2C02C0000F111F0A942C
:1003C000E2F7EA94802B84B984EC99E00197F1F785
:1003D000862D0E945F008C018A2D0E945F009C0187
:1003E00090910801892F8250823018F481E0809327
:1003F0000501E0910501F0E0EE0FFF1FDF01A45CB5
:10040000BE4F0D931C93E45DFE4F318320839530E6
:1004100009F468C0293C310530F082E0809308017E
:100420008093070159C084E14816510408F054C074
:1004300083E08093080182E08093070181E090E0EF
:100440000F8002C0880F991F0A94E2F7082F14B199
:100450008A2D806480937C0010923A0110923901B9
:100460001092040128C0A8958A2D61E00E947E00A8
:1004700086B18023E9F314B880917A008064809378
:100480007A0080917A0086FDFCCF8091780090916F
:1004900079002091390130913A0121503C4F281BBD
:1004A000390B30933A012093390114B9809104013A
:1004B0008F5F80930401809104018D30A0F2209120
:1004C000390130913A01C901880F991F820F931F9A
:1004D00090933A0180933901A09204016092230124
:1004E0007092420118B88B81880F21E030E0D90169
:1004F00002C0AA0FBB1F8A95E2F7BA87A987898530
:10050000832984B985B949010F8002C0880C991CE0
:100510000A94E2F7882D886087B904EC19E0C801D5
:100520000197F1F7872D0E945F00845F914008F0EA
:100530000DC180910501813009F408C3E985E5B951
:10054000C8010197F1F7F985F4B9B2EECB2EB4E00A
:10055000DB2EC6010197F1F7872D0E945F008C0109
:1005600015B8C6010197F1F7298525B9C60101978C
:10057000F1F7872D0E945F00045F114008F04EC024
:100580008558934008F44AC085E08093080114B868
:1005900015B888B8C6010197F1F7598554B9C60155
:1005A0000197F1F7872D0E945F00C39708F0C8C03C
:1005B00084B1382A34B8C6010197F1F78A2D0E9418
:1005C0005F00883C910508F4BBC0872D0E945F0046
:1005D0008639910508F4B4C0898584B9C6010197AC
:1005E000F1F7872D0E945F008639910508F4A8C0B5
:1005F000998595B9C6010197F1F715B8C60101971C
:10060000F1F7872D0E945F00C39708F099C084E03E
:100610008093080181E08093050192C024B1E394A6
:1006200081E090E002C0880F991FEA94E2F7282B3E
:1006300024B925B1822B85B984ED90E30197F1F7B8
:10064000872D0E945F008C018A2D0E945F00AC0103
:10065000809108018250823018F481E08093050176
:10066000E0910501F0E0EE0FFF1FDF01A45CBE4F3B
:100670008FEF93E09C01201B310B2D933C93E45DA5
:10068000FE4F841B950B91838083445F514038F467
:1006900082E08093080181E08093070151C0B4E1BA
:1006A0004B16510408F04CC083E08093080181E0B0
:1006B0008093070114B18A2D806480937C0010928E
:1006C0003A01109239011092040129C0A8958A2D8F
:1006D00060E00E947E0086B1E9818E23E1F714B8C4
:1006E00015B880917A00806480937A0080917A00B6
:1006F00086FDFCCF8091780090917900209139019E
:1007000030913A01280F391F30933A012093390173
:1007100014B915B9809104018F5F80930401809111
:1007200004018D3098F22091390130913A01C901CC
:10073000880F991F820F931F90933A01809339017C
:10074000A0920401709223016092420188E087B96F
:1007500018B8F1C00B811C81000F111F62E0E62E5A
:10076000F12C002E02C0EE0CFF1C0A94E2F781E08F
:1007700090E09C0102C0220F331F0A95E2F7890125
:1007800018B80F8002C0880F991F0A94E2F788609A
:1007900087B98A2D61E00E947E00C4010197F1F7BC
:1007A000872D0E945F006C01862D0E945F00C81A91
:1007B000D90AE4B8E5B8C4010197F1F7872D0E9482
:1007C0005F001C01862D0E945F002C0104B905B951
:1007D0008A2D60E00E947E00C4010197F1F7872D09
:1007E0000E945F005C01862D0E945F00A81AB90A72
:1007F000E4B8E5B8C4010197F1F7872D0E945F00C6
:100800008C01862D0E945F00AC14BD0420F44101D0
:100810008418950804C04801881A990A6501C60120
:100820004F978759934008F086C08091080188232C
:1008300011F0863019F481E08093080120910601BF
:10084000E22FF0E0EE0FFF1FEE0FFF1FDF01AD5BA9
:10085000BE4F7C9211966C92EB5BFE4F86E390E06C
:10086000AC01C49EC001C59E900DD49E900D112474
:100870006BE070E00E94BA0E71836083122F1F5FDD
:100880001093060136E0880C991C3A95E1F7C601F1
:1008900065E070E00E94BA0E6B0170E047C0E72F80
:1008A000F0E0EE0FFF1FEE0FFF1FED5BFE4F8081AC
:1008B0008615D9F581818715C1F58C149D04A8F59D
:1008C000672F412F50E04150504029C0F50131962B
:1008D000AA0CBB1CAA0CBB1C95012D5B3E4FEE0F56
:1008E000FF1FEE0FFF1F03E4402E01E0502E4E0EBF
:1008F0005F1ED2018C91D9018C93D20111968C91FB
:10090000D90111968C9325E431E0A20EB31EE20FBB
:10091000F31F80819181D5018D939C936F5FA62EEB
:10092000BB24A416B50694F212507F5F711708F429
:10093000B6CF109306012B813C81220F331F32E08A
:10094000E32EF12C6701022E02C0CC0CDD1C0A94B0
:10095000E2F701E010E0F80102C0EE0FFF1F2A9558
:10096000E2F718B8C8010F8002C0880F991F0A94D7
:10097000E2F7886087B9E4B9E5B9862D0E945F0087
:100980005C01872D0E945F004C018A189B08C4B847
:10099000C5B8862D0E945F006C01872D0E945F0004
:1009A0002C014C185D080D8002C0EE0CFF1C0A944F
:1009B000E2F70D8002C0000F111F0A94E2F7FA81DE
:1009C000F7B9298128B915B804B9872D0E945F00AD
:1009D000850101501C4F081B190BE4B8872D0E949C
:1009E0005F00F601E150FC4FE81BF90BC401801BCE
:1009F000910B8458934030F4C2018E1B9F0B459796
:100A000008F0A4C0C20125E0880F991F2A95E1F7DC
:100A10006FE170E00E94BA0E6815790508F096C083
:100A200080910801823018F0863009F08FC0609103
:100A30005B01663009F06CC080915C01861509F09D
:100A400067C080910F01871509F062C040913401A1
:100A5000509135019401220F331F280D391D220FAB
:100A6000331F285A3D4FCA01880F991F880F991FBD
:100A7000840F951F8C509E4F2817390708F443C0E8
:100A80009A01220F331F240F351F220F331F285ABC
:100A90003D4FC401880F991F880F991F880D991D1C
:100AA0008C509E4F2817390770F1409136015091B4
:100AB00037019201220F331F240D351D220F331FE2
:100AC000285A3D4FCA01880F991F880F991F840F1C
:100AD000951F8C509E4F28173907A8F09A01220FB6
:100AE000331F240F351F220F331F285A3D4FC201D9
:100AF000880F991F880F991F840D951D8C509E4F4C
:100B00002817390718F410925B0120C06093080180
:100B10009092350180923401509237014092360113
:100B20008FEF93E09C01201B310B30932001209329
:100B30001F018E1B9F0B90932201809321017092C5
:100B40005C0160920F0186E080935B0188E087B9C9
:100B500018B814B815B82A960FB6F894DEBF0FBEB1
:100B6000CDBFCF91DF911F910F91FF90EF90DF905C
:100B7000CF90BF90AF909F908F907F906F905F903D
:100B80004F903F902F900895EF92FF921F93CF9335
:100B9000DF93EC01162F6330B0F4613049F480E04C
:100BA00091E00E946E0E80E30E94410E888108C091
:100BB00080E091E00E946E0E88810E94410E898142
:100BC0000E94410E1EC010920501E42EFF2415C0A4
:100BD00090E002968E159F0519F48EE20E94410E58
:100BE00080910501FE01E80FF11D80810E94410EF8
:100BF000809105018F5F8093050180910501811728
:100C000038F3DF91CF911F91FF90EF9008959F925D
:100C1000AF92BF92CF92DF92EF92FF920F931F930A
:100C2000CF93DF93B82EA62E80910801873009F468
:100C3000A3C1CB2CDD24C601880F991F42E050E0F0
:100C4000082E02C0440F551F0A94E2F74093180182
:100C500021E030E0B90102C0660F771F8A95E2F704
:100C6000962E60930A0118B815B814B80A2C02C061
:100C7000220F331F0A94E2F768E0E62EE22AE7B873
:100C800044B902EE14E0C8010197F1F78B2D0E94E0
:100C90005F0090932501809324018B2D61E00E94D9
:100CA0007E008B2D0E945F00909329018093280184
:100CB000C8010197F1F78B2D0E945F0090932701E7
:100CC00080932601A89520912401309125012F5F62
:100CD0003F4F2817390740F0809128019091290152
:100CE0002817390708F048C180910A0184B9C0E08B
:100CF000D0E0FF2407C0A895219621F4F3947EE16B
:100D0000F71659F08B2D0E945F008C018A2D0E94EE
:100D10005F000A968017910770F380910A0185B9E8
:100D200082EE94E00197F1F78B2D0E945F00909383
:100D300029018093280180E29EE40197F1F78B2D31
:100D40000E945F009C0190932B0180932A01809167
:100D500028019091290103962817390728F483E088
:100D60002235380708F408C180910601882341F034
:100D7000275B334028F080910801833009F0FCC0E4
:100D800015B8C0E0D0E0FF2407C0A895219621F453
:100D9000F3947EE1F71659F08B2D0E945F008C01D1
:100DA0008A2D0E945F000A968017910770F38FE0EA
:100DB00087B980910A0185B981E090E002C0880F6F
:100DC000991FCA94E2F7982F80930A01E4EFF1E0AB
:100DD0003197F1F7E7B8C0E0D0E0DD2408C0A8956E
:100DE000219629F4D3948EE1D81609F44CC086B12B
:100DF0008923A9F3CD2CDD2009F045C0CF3FD105D3
:100E000011F008F040C0E7B815B8FF24C0E0D0E00A
:100E100007C0A895219621F4F3946EE1F61659F0D7
:100E20008B2D0E945F008C018A2D0E945F000A9624
:100E30008017910770F38FE087B918B88091180177
:100E400084B985B984EF91E00197F1F780910801A9
:100E5000833059F480910A0180958770886087B942
:100E600090910A01C0E0D0E00AC0E7B8F9CFA89598
:100E7000219629F4C3947EE1C71609F48EC086B189
:100E80008923A9F38AC08AE090E00E94540F7C0174
:100E900000E010E088EE93E0A0E0B0E080930B016A
:100EA00090930C01A0930D01B0930E01CD2C13C0B3
:100EB000C530D10508F460C07C0100E010E081E09D
:100EC00090E0A0E0B0E080930B0190930C01A09320
:100ED0000D01B0930E016C2D70E080E090E0CB012D
:100EE000772766279E0140E050E0620F731F841F42
:100EF000951FA80197010E949B0E24E630E040E078
:100F000050E00E94CE0E60910B0170910C01809117
:100F10000D0190910E010E949B0E60930B01709346
:100F20000C0180930D0190930E0187E080930801DE
:100F3000B0923B01A092090194B815B8C0E0D0E08E
:100F4000FF2407C0A895219621F4F3948EE1F816AA
:100F500059F08B2D0E945F008C018A2D0E945F004A
:100F60000A968017910770F38FE087B987E088B9F8
:100F700084EC99E00197F1F788E087B918B814B8C4
:100F800015B8DF91CF911F910F91FF90EF90DF90F7
:100F9000CF90BF90AF909F90089588E090E00E941E
:100FA000540FCC2009F484CF87CF2F923F924F92D9
:100FB0005F926F927F928F929F92AF92BF92CF92E9
:100FC000DF92EF92FF920F931F93CF93DF9380E412
:100FD0008AB980EC8BB983E880937A000E94000E76
:100FE00086E090E00E94540FEC0184E090E00E94C3
:100FF000540F2C0180E090E00E944C0F482F50E0ED
:101000009A012C703070359527953595279520934A
:1010100040018370809338014073507094E055957F
:1010200047959A95E1F74093410188E10FB6F8940E
:1010300080936000109260000FBE05B603FE0EC0E4
:1010400089E591E00E945D0E80E395E729E130E0BB
:10105000F9013197F1F70197D9F774C080E40E9444
:10106000E90D82E691E00E945D0E80E80E94E90DA4
:10107000BE0180E090E024E630E040E050E00E94D5
:101080009B0E5B016C0180E1282E81E0382E32013D
:101090008824992404C090933D0180933C012FE063
:1010A00088E190E00FB6F894A895809360000FBE99
:1010B000209360001092080110925B0110920601CB
:1010C000109205011092070110923B011092090144
:1010D0000E94F60D88E087B90E94E20D85E80E9423
:1010E0005F0085E80E945F0090933D0180933C0182
:1010F0000E94F60D8CE090E00E945D0E80EC0E9454
:10110000E90D80913C0190913D01825A9340B8F5E0
:101110000E94F60D8EE290E00E945D0E80913C01EF
:1011200090913D018B56934018F580E490E00E9429
:101130005D0E80E197E229E130E0F9013197F1F7A6
:101140000197D9F71BB880E090E0DF91CF911F9114
:101150000F91FF90EF90DF90CF90BF90AF909F9056
:101160008F907F906F905F904F903F902F90089559
:1011700088E390E00E945D0E80EC0E94E90D8CE116
:1011800090E00E945D0E80E061E042E00E94A500D8
:1011900080E062E041E00E94A50081E060E042E082
:1011A0000E94A50081E062E040E00E94A50082E08C
:1011B00061E040E00E94A50082E060E041E00E9422
:1011C000A50080910801882321F0863011F081303C
:1011D00089F520914101222369F115B885E184B98F
:1011E00084EC99E00197F1F714B8213059F480911B
:1011F0004001609138010E9407068091380160919A
:10120000400116C082E060E00E94070682E061E0D3
:101210000E94070681E062E00E94070681E060E02C
:101220000E94070680E062E00E94070680E061E01D
:101230000E9407060E94F60D80910801813009F096
:10124000F1C080910601813081F58CE790E00E9429
:101250005D0E8DE491E00E945D0E809143018F5CF4
:101260000E9453000E94410E85EC90E00E945D0EAA
:10127000809144018F5C0E9453000E94410E80ECDB
:101280000E94E90D82E491E00E945D0E809145018B
:101290009091460160E171E04AE050E00E94F00E5A
:1012A0000E946E0E8AE491E01AC4823009F06CC08C
:1012B0003091430120914701321741F584E890E0D5
:1012C0000E945D0E83E591E00E945D0E80EC0E941D
:1012D000E90D8DE491E00E945D0E809143018F5CE9
:1012E0000E9453000E94410E86EB90E00E945D0E2A
:1012F000809144018F5C0E9453000E94410E8BEB51
:1013000090E00E945D0E8091480192C2809144015C
:1013100090914801891741F584E890E00E945D0EA4
:1013200086E591E00E945D0E80EC0E94E90D89EC5B
:1013300090E00E945D0E809144018F5C0E945300FA
:101340000E94410E86E191E00E945D0E8091430172
:101350008F5C0E9453000E94410E8BE191E00E943D
:101360005D0E8091470164C2821709F0A7C39317ED
:1013700009F0A4C383E990E00E945D0E80EC0E9416
:10138000E90D8CE990E0ABC3833009F097C38093FB
:1013900004018093230190914301809147019817A4
:1013A00021F080914B01981711F4909304019091D2
:1013B000470180914B01981711F49093040190918B
:1013C000440180914801981721F080914C019817B1
:1013D00011F4909323019091480180914C0198174A
:1013E00011F49093230180910401833008F066C3C7
:1013F00080912301833008F061C383E990E00E946B
:101400005D0E80EC0E94E90D8AEA90E00E945D0E7C
:10141000809104018F5C0E9453000E94410E85EC74
:1014200090E002C2823009F00BC18091050188234F
:1014300081F480913C0190913D0190933F01809314
:101440003E0180912C0190912D0190932F0180936A
:101450002E0120913C0130913D0180913E019091FF
:101460003F0182179307A0F430933F0120933E0180
:1014700080912C0190912D0190932F0180932E014A
:101480009091230180914201809323019093420126
:1014900080910701813019F489E291E002C08DE268
:1014A00091E00E945D0E81E391E00E945D0E8091CB
:1014B00004018F5C0E9453000E94410E85E391E07D
:1014C0000E945D0E809123018F5C0E9453000E9458
:1014D000410E89E391E00E945D0E809142018F5C94
:1014E0000E9453000E94410E80EC0E94E90DC6014B
:1014F000B501A40193010E94CE0ECA01B901209149
:101500003E0130913F0140E050E00E949B0E60930D
:1015100030017093310180933201909333018091B7
:101520002E0190912F010B9730F48BE090E0909377
:101530002F0180932E0120912E0130912F0140E048
:1015400050E06091300170913101809132019091B1
:1015500033010E94CE0E209330013093310140932D
:10156000320150933301C90120933E0190933F0112
:1015700084E291E00E945D0E80913E0190913F01D6
:1015800060E171E04AE050E00E94360F0E946E0E6A
:1015900087EC0E94E90D80910601833010F080E015
:1015A00001C080E20E94410E1092230141C0A22F8F
:1015B000B0E0FD01EE0FFF1FEE0FFF1FED5BFE4FD2
:1015C000418130914201431749F490818091040197
:1015D000981721F480910701813089F0AA0FBB1F71
:1015E000AA0FBB1FAD5BBE4F8C918317F1F48091A6
:1015F00004014817D1F4809107018230B1F482E4EC
:1016000091E00E945D0EE0912301F0E0EE0FFF1FDC
:10161000EE0FFF1FEB5BFE4F8081918160E171E077
:101620004AE050E00E94F00EBCC02F5F20932301DF
:101630002091230180910601281708F4B8CF69C2D0
:10164000833009F0B2C08091070180FF02C08EE4B0
:1016500001C080E50E94410E90910701892F8350BF
:10166000823018F48DE091E008C09550923018F463
:1016700080E191E006C08AE091E00E945D0E85E085
:1016800091E00E945D0E80910701833008F040C018
:1016900080E291E00E945D0E809104016091420120
:1016A0000E94070680910B0190910C0190933D01DF
:1016B00080933C018330910528F0039790933D017E
:1016C00080933C0180913C0190913D0169E171E082
:1016D0004AE050E00E94360FE9E1F1E0019000207D
:1016E000E9F73197E951F140E0930A01E0931801DD
:1016F000E53018F084E080930A0189E191E060917F
:101700000A01409118010E94C4058EE60E94410E14
:1017100080EC0E94E90D8DE391E00E945D0E8091C6
:1017200004018F5C0E9453000E94410E80912301AE
:101730008F5C0E9453000E94410E809142018F5C99
:101740000E9453000E94410E80910601882331F0CF
:1017500080910701833010F480E001C080E20E9494
:10176000410E80910701833008F0D3C18091390187
:1017700090913A01E3E096958795EA95E1F7909389
:101780003A018093390186E491E00E945D0E8091D8
:10179000390190913A0160E171E04AE050E00E9425
:1017A000360F0E946E0E8DE6B2C18530E1F482EDF7
:1017B00090E00E945D0E80EC0E94E90D80EC90E0CC
:1017C0000E945D0E809104018F5C0E9453000E9474
:1017D000410E809123018F5C0E9453000E94410EB4
:1017E0008091420125C0843039F58CEC90E00E9454
:1017F0005D0E80EC0E94E90D80E591E00E945D0E97
:10180000809104018F5C0E9453000E94410E86E18A
:1018100091E00E945D0E809142018F5C0E94530016
:101820000E94410E8BE191E00E945D0E80912301A8
:101830008F5C0E9453006BC1863009F0DDC08AEED8
:1018400090E00E945D0E80915C018F5C0E945300CD
:101850000E94410E8DE20E94410E80910F018F5C2B
:101860000E9453000E94410E80EC0E94E90D2091DD
:1018700034013091350182E02130380738F02050B2
:10188000324030933D0120933C0108C080E092E05B
:10189000821B930B90933D0180933C012091360174
:1018A0003091370182E02130380738F02050324043
:1018B00030933F0120933E0108C080E092E0821BFC
:1018C000930B90933F0180933E0120913C01309116
:1018D0003D0180913E0190913F0182179307A8F44A
:1018E00080912101909122019093200180931F010A
:1018F00080913601909137019093350180933401A6
:10190000D0933701C093360104C050923701409202
:1019100036018091340190913501892B31F481E0B9
:1019200090E09093350180933401E0903401F09081
:10193000350100E010E0209136013091370140E0A0
:1019400050E0C801B7010E949B0E20911F01309109
:10195000200140E050E02E193F09400B510B0E943E
:10196000CE0ECA01209330013093310140933201F1
:1019700090933301B90140E151E02AE030E00E9448
:10198000110F80913601909137018C179D0771F5E9
:10199000F10101900020E9F73197E051F140E09327
:1019A0005C0110920F0118C0F0E0E05FFE4F8081F3
:1019B0000E94410E20910F0130E080915C0190E087
:1019C00002972817390719F48CE20E94410E809182
:1019D0000F018F5F80930F01E0910F0180915C01F7
:1019E000E81710F38BE40E94410E04C080E191E0FF
:1019F0000E946E0E84EF8BC0873009F05FC087EFC6
:101A000090E00E945D0E80913B018F5C0E9453002C
:101A10000E94410E8DE20E94410E809109018F5C6F
:101A20000E9453000E94410E80EC0E94E90D8EE658
:101A30008093180160910B0170910C0180910D0150
:101A400090910E01603A26E8720721E0820720E0BB
:101A5000920788F028EE33E040E050E00E94CE0E7E
:101A600020930B0130930C0140930D0150930E0114
:101A700084EE8093180160910B0170910C018091AC
:101A80000D0190910E0140E151E02AE030E00E940A
:101A9000110FF10101900020E9F73197E051F14079
:101AA000E0930A0180E191E06E2F4E2F0E94C40561
:101AB000809118010E94410E86E429C080910601A0
:101AC000882381F489E490E00E945D0E80EC0E94FE
:101AD000E90D8AE590E00E945D0E87E690E00E94A5
:101AE0005D0E17C087E690E00E945D0E82E790E0F1
:101AF0000E945D0E80EC0E94E90D8CED90E00E944A
:101B00005D0E80910601805D0E94410E80E00E9482
:101B1000410E4F9BFECF80E593EC0197F1F71092B9
:101B20003D0110923C0180E090E04AEF50E00AC095
:101B30009C012F5F3F4F4F9BAECAA895CA010197EA
:101B4000F1F7C90127E28031920790F390933D01AC
:101B500080933C015E9888E10FB6F8948093600012
:101B6000109260000FBE4F99FECF99CA96EA9A95DF
:101B7000F1F79BB1282F22952F70907F292B2BB93D
:101B800031E0932F9A95F1F75D9A23E0922F9A9581
:101B9000F1F75D989BB18F70907F982B9BB93A9528
:101BA000F1F75D9A2A95F1F75D9884E18A95F1F74E
:101BB0008BB1807F8BB908955D9A83E08A95F1F7A8
:101BC0005D9808958DE00E947B0E8AE00E947B0E56
:101BD00008951F93182F5C980E94B60D103811F0CD
:101BE000103C11F40E94E20D1F91089581E00E94C3
:101BF000E90D82EE94E00197F1F70E94E20D08955D
:101C00008AB18F638AB98CE49DE10197F1F78BB1BA
:101C1000807E83608BB95D9A93E0892F8A95F1F776
:101C20005D98E2EEF4E03197F1F75D9A892F8A959D
:101C3000F1F75D982AEF30E0F9013197F1F75D9AFD
:101C4000892F8A95F1F75D98F9013197F1F78BB1FA
:101C5000807E82608BB9F9013197F1F75D9A9A9590
:101C6000F1F75D98C9010197F1F788E20E94E90D4B
:101C70008CE00E94E90D86E00E94E90D0E94F60DBD
:101C800008951F93182F5C9A0E94B60D113E61F0C3
:101C9000123E18F4112331F00BC0143E39F0143FFA
:101CA00039F409C083E205C084EE03C085EB01C0AE
:101CB000812F0E947B0E1F910895CF93DF93EC013B
:101CC000CE010E944C0F882331F0803821F00E9411
:101CD000410E2196F5CFDF91CF910895CF93DF93F9
:101CE000EC0103C00E94410E219688818823D1F720
:101CF000DF91CF9108952F935FB72F932AE08095BE
:101D0000089410F4439A02C04398000008D007D00A
:101D100086952A95B1F72F915FBF2F9108955F9314
:101D20005FB75F9300005EE35A95F1F700005F91A3
:101D30005FBF5F910895629FD001739FF001829F02
:101D4000E00DF11D649FE00DF11D929FF00D839F4A
:101D5000F00D749FF00D659FF00D9927729FB00DE7
:101D6000E11DF91F639FB00DE11DF91FBD01CF01FA
:101D700011240895AA1BBB1B51E107C0AA1FBB1F5A
:101D8000A617B70710F0A61BB70B881F991F5A9507
:101D9000A9F780959095BC01CD010895A1E21A2E76
:101DA000AA1BBB1BFD010DC0AA1FBB1FEE1FFF1FFF
:101DB000A217B307E407F50720F0A21BB30BE40B4F
:101DC000F50B661F771F881F991F1A9469F7609596
:101DD0007095809590959B01AC01BD01CF01089550
:101DE000FB019F01E8944230C4F04532B4F44A301C
:101DF00029F497FB1EF4909581959F4F642F7727C8
:101E00000E94BA0E805D8A330CF0895D8193CB010C
:101E10000097A1F716F45DE251931082C9010C946A
:101E20005A0FFA01CF93FF93EF932230CCF0253273
:101E3000BCF4C22F2C2F332744275527FF93EF9351
:101E40000E94CE0EEF91FF91605D6A330CF0695DE8
:101E50006193B901CA01605070408040904051F7D1
:101E600010828F919F91CF910C945A0FFB019F018B
:101E7000423074F0453264F4642F77270E94BA0E22
:101E8000805D8A330CF0895D8193CB010097A1F7C7
:101E90001082C9010C945A0FF999FECF92BD81BDF1
:101EA000F89A992780B50895A8E1B0E042E050E0A3
:101EB0000C946C0FDC01FC01672F71917723E1F723
:101EC000329704C07C916D9370836291AE17BF0707
:101ED000C8F30895DC01CB01FC01F999FECF06C0DF
:101EE000F2BDE1BDF89A319600B40D9241505040D8
:081EF000B8F70895F894FFCF44
:041EF800302E000088
:00000001FF
